{
  "contractName": "AccessContract",
  "abi": [
    {
      "inputs": [],
      "stateMutability": "nonpayable",
      "type": "constructor"
    },
    {
      "anonymous": false,
      "inputs": [
        {
          "indexed": true,
          "internalType": "bytes32",
          "name": "role",
          "type": "bytes32"
        },
        {
          "indexed": true,
          "internalType": "bytes32",
          "name": "previousAdminRole",
          "type": "bytes32"
        },
        {
          "indexed": true,
          "internalType": "bytes32",
          "name": "newAdminRole",
          "type": "bytes32"
        }
      ],
      "name": "RoleAdminChanged",
      "type": "event"
    },
    {
      "anonymous": false,
      "inputs": [
        {
          "indexed": true,
          "internalType": "bytes32",
          "name": "role",
          "type": "bytes32"
        },
        {
          "indexed": true,
          "internalType": "address",
          "name": "account",
          "type": "address"
        },
        {
          "indexed": true,
          "internalType": "address",
          "name": "sender",
          "type": "address"
        }
      ],
      "name": "RoleGranted",
      "type": "event"
    },
    {
      "anonymous": false,
      "inputs": [
        {
          "indexed": true,
          "internalType": "bytes32",
          "name": "role",
          "type": "bytes32"
        },
        {
          "indexed": true,
          "internalType": "address",
          "name": "account",
          "type": "address"
        },
        {
          "indexed": true,
          "internalType": "address",
          "name": "sender",
          "type": "address"
        }
      ],
      "name": "RoleRevoked",
      "type": "event"
    },
    {
      "inputs": [],
      "name": "ACCESS_ROLE",
      "outputs": [
        {
          "internalType": "bytes32",
          "name": "",
          "type": "bytes32"
        }
      ],
      "stateMutability": "view",
      "type": "function"
    },
    {
      "inputs": [],
      "name": "DEFAULT_ADMIN_ROLE",
      "outputs": [
        {
          "internalType": "bytes32",
          "name": "",
          "type": "bytes32"
        }
      ],
      "stateMutability": "view",
      "type": "function"
    },
    {
      "inputs": [
        {
          "internalType": "bytes32",
          "name": "role",
          "type": "bytes32"
        }
      ],
      "name": "getRoleAdmin",
      "outputs": [
        {
          "internalType": "bytes32",
          "name": "",
          "type": "bytes32"
        }
      ],
      "stateMutability": "view",
      "type": "function"
    },
    {
      "inputs": [
        {
          "internalType": "bytes32",
          "name": "role",
          "type": "bytes32"
        },
        {
          "internalType": "address",
          "name": "account",
          "type": "address"
        }
      ],
      "name": "grantRole",
      "outputs": [],
      "stateMutability": "nonpayable",
      "type": "function"
    },
    {
      "inputs": [
        {
          "internalType": "bytes32",
          "name": "role",
          "type": "bytes32"
        },
        {
          "internalType": "address",
          "name": "account",
          "type": "address"
        }
      ],
      "name": "hasRole",
      "outputs": [
        {
          "internalType": "bool",
          "name": "",
          "type": "bool"
        }
      ],
      "stateMutability": "view",
      "type": "function"
    },
    {
      "inputs": [
        {
          "internalType": "bytes32",
          "name": "role",
          "type": "bytes32"
        },
        {
          "internalType": "address",
          "name": "account",
          "type": "address"
        }
      ],
      "name": "renounceRole",
      "outputs": [],
      "stateMutability": "nonpayable",
      "type": "function"
    },
    {
      "inputs": [
        {
          "internalType": "bytes32",
          "name": "role",
          "type": "bytes32"
        },
        {
          "internalType": "address",
          "name": "account",
          "type": "address"
        }
      ],
      "name": "revokeRole",
      "outputs": [],
      "stateMutability": "nonpayable",
      "type": "function"
    },
    {
      "inputs": [
        {
          "internalType": "bytes4",
          "name": "interfaceId",
          "type": "bytes4"
        }
      ],
      "name": "supportsInterface",
      "outputs": [
        {
          "internalType": "bool",
          "name": "",
          "type": "bool"
        }
      ],
      "stateMutability": "view",
      "type": "function"
    },
    {
      "inputs": [
        {
          "internalType": "address",
          "name": "account",
          "type": "address"
        }
      ],
      "name": "grantAccess",
      "outputs": [],
      "stateMutability": "nonpayable",
      "type": "function"
    },
    {
      "inputs": [
        {
          "internalType": "address",
          "name": "account",
          "type": "address"
        }
      ],
      "name": "hasAccess",
      "outputs": [
        {
          "internalType": "bool",
          "name": "",
          "type": "bool"
        }
      ],
      "stateMutability": "view",
      "type": "function"
    },
    {
      "inputs": [],
      "name": "withdrawBalance",
      "outputs": [],
      "stateMutability": "nonpayable",
      "type": "function"
    },
    {
      "inputs": [],
      "name": "purchaseAccess",
      "outputs": [],
      "stateMutability": "payable",
      "type": "function"
    }
  ],
  "bytecode": "0x608060405234801561001057600080fd5b506100246000801b3361002960201b60201c565b61019b565b610039828261003d60201b60201c565b5050565b61004d828261012960201b60201c565b61012557600160008084815260200190815260200160002060000160008373ffffffffffffffffffffffffffffffffffffffff1673ffffffffffffffffffffffffffffffffffffffff16815260200190815260200160002060006101000a81548160ff0219169083151502179055506100ca61019360201b60201c565b73ffffffffffffffffffffffffffffffffffffffff168173ffffffffffffffffffffffffffffffffffffffff16837f2f8788117e7eff1d82e926ec794901d17c78024a50270940304540a733656f0d60405160405180910390a45b5050565b600080600084815260200190815260200160002060000160008373ffffffffffffffffffffffffffffffffffffffff1673ffffffffffffffffffffffffffffffffffffffff16815260200190815260200160002060009054906101000a900460ff16905092915050565b600033905090565b61123c806101aa6000396000f3fe6080604052600436106100a75760003560e01c80635fd8c710116100645780635fd8c710146101cc57806391d14854146101e357806395a078e81461022057806399e288d81461025d578063a217fddf14610267578063d547741f14610292576100a7565b806301ffc9a7146100ac5780630ae5e739146100e9578063248a9ca3146101125780632f2ff15d1461014f57806336568abe1461017857806356b855aa146101a1575b600080fd5b3480156100b857600080fd5b506100d360048036038101906100ce9190610b81565b6102bb565b6040516100e09190610bc9565b60405180910390f35b3480156100f557600080fd5b50610110600480360381019061010b9190610c42565b610335565b005b34801561011e57600080fd5b5061013960048036038101906101349190610ca5565b610378565b6040516101469190610ce1565b60405180910390f35b34801561015b57600080fd5b5061017660048036038101906101719190610cfc565b610397565b005b34801561018457600080fd5b5061019f600480360381019061019a9190610cfc565b6103c0565b005b3480156101ad57600080fd5b506101b6610443565b6040516101c39190610ce1565b60405180910390f35b3480156101d857600080fd5b506101e1610467565b005b3480156101ef57600080fd5b5061020a60048036038101906102059190610cfc565b6104c6565b6040516102179190610bc9565b60405180910390f35b34801561022c57600080fd5b5061024760048036038101906102429190610c42565b610530565b6040516102549190610bc9565b60405180910390f35b610265610563565b005b34801561027357600080fd5b5061027c6105da565b6040516102899190610ce1565b60405180910390f35b34801561029e57600080fd5b506102b960048036038101906102b49190610cfc565b6105e1565b005b60007f7965db0b000000000000000000000000000000000000000000000000000000007bffffffffffffffffffffffffffffffffffffffffffffffffffffffff1916827bffffffffffffffffffffffffffffffffffffffffffffffffffffffff1916148061032e575061032d8261060a565b5b9050919050565b6000801b61034a81610345610674565b61067c565b6103747f7def632d64a7259044c921303d544f945a340c8d4334adc0e0bd830a54deb52883610397565b5050565b6000806000838152602001908152602001600020600101549050919050565b6103a082610378565b6103b1816103ac610674565b61067c565b6103bb8383610719565b505050565b6103c8610674565b73ffffffffffffffffffffffffffffffffffffffff168173ffffffffffffffffffffffffffffffffffffffff1614610435576040517f08c379a000000000000000000000000000000000000000000000000000000000815260040161042c90610dbf565b60405180910390fd5b61043f82826107f9565b5050565b7f7def632d64a7259044c921303d544f945a340c8d4334adc0e0bd830a54deb52881565b6000801b61047c81610477610674565b61067c565b3373ffffffffffffffffffffffffffffffffffffffff166108fc479081150290604051600060405180830381858888f193505050501580156104c2573d6000803e3d6000fd5b5050565b600080600084815260200190815260200160002060000160008373ffffffffffffffffffffffffffffffffffffffff1673ffffffffffffffffffffffffffffffffffffffff16815260200190815260200160002060009054906101000a900460ff16905092915050565b600061055c7f7def632d64a7259044c921303d544f945a340c8d4334adc0e0bd830a54deb528836104c6565b9050919050565b670de0b6b3a76400003410156105ae576040517f08c379a00000000000000000000000000000000000000000000000000000000081526004016105a590610e51565b60405180910390fd5b6105d87f7def632d64a7259044c921303d544f945a340c8d4334adc0e0bd830a54deb528336108da565b565b6000801b81565b6105ea82610378565b6105fb816105f6610674565b61067c565b61060583836107f9565b505050565b60007f01ffc9a7000000000000000000000000000000000000000000000000000000007bffffffffffffffffffffffffffffffffffffffffffffffffffffffff1916827bffffffffffffffffffffffffffffffffffffffffffffffffffffffff1916149050919050565b600033905090565b61068682826104c6565b610715576106ab8173ffffffffffffffffffffffffffffffffffffffff1660146108e8565b6106b98360001c60206108e8565b6040516020016106ca929190610f83565b6040516020818303038152906040526040517f08c379a000000000000000000000000000000000000000000000000000000000815260040161070c9190611007565b60405180910390fd5b5050565b61072382826104c6565b6107f557600160008084815260200190815260200160002060000160008373ffffffffffffffffffffffffffffffffffffffff1673ffffffffffffffffffffffffffffffffffffffff16815260200190815260200160002060006101000a81548160ff02191690831515021790555061079a610674565b73ffffffffffffffffffffffffffffffffffffffff168173ffffffffffffffffffffffffffffffffffffffff16837f2f8788117e7eff1d82e926ec794901d17c78024a50270940304540a733656f0d60405160405180910390a45b5050565b61080382826104c6565b156108d657600080600084815260200190815260200160002060000160008373ffffffffffffffffffffffffffffffffffffffff1673ffffffffffffffffffffffffffffffffffffffff16815260200190815260200160002060006101000a81548160ff02191690831515021790555061087b610674565b73ffffffffffffffffffffffffffffffffffffffff168173ffffffffffffffffffffffffffffffffffffffff16837ff6391f5c32d9c69d2a47ea670b442974b53935d1edc7fd64eb21e047a839171b60405160405180910390a45b5050565b6108e48282610719565b5050565b6060600060028360026108fb9190611062565b61090591906110bc565b67ffffffffffffffff81111561091e5761091d611112565b5b6040519080825280601f01601f1916602001820160405280156109505781602001600182028036833780820191505090505b5090507f30000000000000000000000000000000000000000000000000000000000000008160008151811061098857610987611141565b5b60200101907effffffffffffffffffffffffffffffffffffffffffffffffffffffffffffff1916908160001a9053507f7800000000000000000000000000000000000000000000000000000000000000816001815181106109ec576109eb611141565b5b60200101907effffffffffffffffffffffffffffffffffffffffffffffffffffffffffffff1916908160001a90535060006001846002610a2c9190611062565b610a3691906110bc565b90505b6001811115610ad6577f3031323334353637383961626364656600000000000000000000000000000000600f861660108110610a7857610a77611141565b5b1a60f81b828281518110610a8f57610a8e611141565b5b60200101907effffffffffffffffffffffffffffffffffffffffffffffffffffffffffffff1916908160001a905350600485901c945080610acf90611170565b9050610a39565b5060008414610b1a576040517f08c379a0000000000000000000000000000000000000000000000000000000008152600401610b11906111e6565b60405180910390fd5b8091505092915050565b600080fd5b60007fffffffff0000000000000000000000000000000000000000000000000000000082169050919050565b610b5e81610b29565b8114610b6957600080fd5b50565b600081359050610b7b81610b55565b92915050565b600060208284031215610b9757610b96610b24565b5b6000610ba584828501610b6c565b91505092915050565b60008115159050919050565b610bc381610bae565b82525050565b6000602082019050610bde6000830184610bba565b92915050565b600073ffffffffffffffffffffffffffffffffffffffff82169050919050565b6000610c0f82610be4565b9050919050565b610c1f81610c04565b8114610c2a57600080fd5b50565b600081359050610c3c81610c16565b92915050565b600060208284031215610c5857610c57610b24565b5b6000610c6684828501610c2d565b91505092915050565b6000819050919050565b610c8281610c6f565b8114610c8d57600080fd5b50565b600081359050610c9f81610c79565b92915050565b600060208284031215610cbb57610cba610b24565b5b6000610cc984828501610c90565b91505092915050565b610cdb81610c6f565b82525050565b6000602082019050610cf66000830184610cd2565b92915050565b60008060408385031215610d1357610d12610b24565b5b6000610d2185828601610c90565b9250506020610d3285828601610c2d565b9150509250929050565b600082825260208201905092915050565b7f416363657373436f6e74726f6c3a2063616e206f6e6c792072656e6f756e636560008201527f20726f6c657320666f722073656c660000000000000000000000000000000000602082015250565b6000610da9602f83610d3c565b9150610db482610d4d565b604082019050919050565b60006020820190508181036000830152610dd881610d9c565b9050919050565b7f596f75206d757374207061792070726f70657220707269636520666f7220616360008201527f6365737300000000000000000000000000000000000000000000000000000000602082015250565b6000610e3b602483610d3c565b9150610e4682610ddf565b604082019050919050565b60006020820190508181036000830152610e6a81610e2e565b9050919050565b600081905092915050565b7f416363657373436f6e74726f6c3a206163636f756e7420000000000000000000600082015250565b6000610eb2601783610e71565b9150610ebd82610e7c565b601782019050919050565b600081519050919050565b60005b83811015610ef1578082015181840152602081019050610ed6565b83811115610f00576000848401525b50505050565b6000610f1182610ec8565b610f1b8185610e71565b9350610f2b818560208601610ed3565b80840191505092915050565b7f206973206d697373696e6720726f6c6520000000000000000000000000000000600082015250565b6000610f6d601183610e71565b9150610f7882610f37565b601182019050919050565b6000610f8e82610ea5565b9150610f9a8285610f06565b9150610fa582610f60565b9150610fb18284610f06565b91508190509392505050565b6000601f19601f8301169050919050565b6000610fd982610ec8565b610fe38185610d3c565b9350610ff3818560208601610ed3565b610ffc81610fbd565b840191505092915050565b600060208201905081810360008301526110218184610fce565b905092915050565b6000819050919050565b7f4e487b7100000000000000000000000000000000000000000000000000000000600052601160045260246000fd5b600061106d82611029565b915061107883611029565b9250817fffffffffffffffffffffffffffffffffffffffffffffffffffffffffffffffff04831182151516156110b1576110b0611033565b5b828202905092915050565b60006110c782611029565b91506110d283611029565b9250827fffffffffffffffffffffffffffffffffffffffffffffffffffffffffffffffff0382111561110757611106611033565b5b828201905092915050565b7f4e487b7100000000000000000000000000000000000000000000000000000000600052604160045260246000fd5b7f4e487b7100000000000000000000000000000000000000000000000000000000600052603260045260246000fd5b600061117b82611029565b9150600082141561118f5761118e611033565b5b600182039050919050565b7f537472696e67733a20686578206c656e67746820696e73756666696369656e74600082015250565b60006111d0602083610d3c565b91506111db8261119a565b602082019050919050565b600060208201905081810360008301526111ff816111c3565b905091905056fea26469706673582212207b6dadb3cdcfbad265d527aff417672cdab4d5059a9a1c4e99083bb12362b76864736f6c634300080a0033",
  "immutableReferences": {},
  "source": "// SPDX-License-Identifier: MIT\npragma solidity ^0.8.0;\n\nimport \"@openzeppelin/contracts/access/AccessControl.sol\";\n\ncontract AccessContract is AccessControl {\n    bytes32 public constant ACCESS_ROLE = keccak256(\"ACCESS_ROLE\");\n\n    constructor() {\n        _setupRole(DEFAULT_ADMIN_ROLE, msg.sender);\n    }\n\n    function grantAccess(address account) public onlyRole(DEFAULT_ADMIN_ROLE) {\n        grantRole(ACCESS_ROLE, account);\n    }\n\n    function hasAccess(address account) public view returns (bool) {\n        return hasRole(ACCESS_ROLE, account);\n    }\n\n    function withdrawBalance() public onlyRole(DEFAULT_ADMIN_ROLE) {\n        payable(msg.sender).transfer(address(this).balance);\n    }\n\n    function purchaseAccess() public payable {\n        require(\n            msg.value >= 1 ether,\n            \"You must pay proper price for access\"\n        );\n        _setupRole(ACCESS_ROLE, msg.sender);\n    }\n}\n",
  "sourcePath": "/Users/jakubjodelka/Documents/Programming/10c/pres/contracts/contracts/AccessContract.sol",
  "compiler": {
    "name": "solc",
    "version": "0.8.10+commit.fc410830.Emscripten.clang"
  },
  "schemaVersion": "3.4.3",
  "updatedAt": "2021-12-03T00:20:28.327Z",
  "devdoc": {
    "kind": "dev",
    "methods": {
      "getRoleAdmin(bytes32)": {
        "details": "Returns the admin role that controls `role`. See {grantRole} and {revokeRole}. To change a role's admin, use {_setRoleAdmin}."
      },
      "grantRole(bytes32,address)": {
        "details": "Grants `role` to `account`. If `account` had not been already granted `role`, emits a {RoleGranted} event. Requirements: - the caller must have ``role``'s admin role."
      },
      "hasRole(bytes32,address)": {
        "details": "Returns `true` if `account` has been granted `role`."
      },
      "renounceRole(bytes32,address)": {
        "details": "Revokes `role` from the calling account. Roles are often managed via {grantRole} and {revokeRole}: this function's purpose is to provide a mechanism for accounts to lose their privileges if they are compromised (such as when a trusted device is misplaced). If the calling account had been granted `role`, emits a {RoleRevoked} event. Requirements: - the caller must be `account`."
      },
      "revokeRole(bytes32,address)": {
        "details": "Revokes `role` from `account`. If `account` had been granted `role`, emits a {RoleRevoked} event. Requirements: - the caller must have ``role``'s admin role."
      },
      "supportsInterface(bytes4)": {
        "details": "See {IERC165-supportsInterface}."
      }
    },
    "version": 1
  },
  "userdoc": {
    "kind": "user",
    "methods": {},
    "version": 1
  }
}